{
  "_format": "hh-sol-artifact-1",
  "contractName": "Transactions",
  "sourceName": "contracts/Transactions.sol",
  "abi": [
    {
      "inputs": [],
      "name": "buss",
      "outputs": [
        {
          "internalType": "uint256",
          "name": "busin_bal",
          "type": "uint256"
        },
        {
          "internalType": "address payable",
          "name": "busin_add",
          "type": "address"
        }
      ],
      "stateMutability": "view",
      "type": "function"
    },
    {
      "inputs": [],
      "name": "cus",
      "outputs": [
        {
          "internalType": "uint256",
          "name": "cus_bal",
          "type": "uint256"
        },
        {
          "internalType": "address",
          "name": "cus_add",
          "type": "address"
        }
      ],
      "stateMutability": "view",
      "type": "function"
    },
    {
      "inputs": [],
      "name": "gov",
      "outputs": [
        {
          "internalType": "uint256",
          "name": "tax_bal",
          "type": "uint256"
        },
        {
          "internalType": "address payable",
          "name": "gov_add",
          "type": "address"
        },
        {
          "internalType": "uint256",
          "name": "gov_bal",
          "type": "uint256"
        },
        {
          "internalType": "uint256",
          "name": "tax_rate",
          "type": "uint256"
        }
      ],
      "stateMutability": "view",
      "type": "function"
    },
    {
      "inputs": [
        {
          "internalType": "address payable",
          "name": "_gov_add",
          "type": "address"
        }
      ],
      "name": "pay_tax",
      "outputs": [],
      "stateMutability": "nonpayable",
      "type": "function"
    },
    {
      "inputs": [
        {
          "internalType": "uint256",
          "name": "_amount",
          "type": "uint256"
        },
        {
          "internalType": "address payable",
          "name": "_busin_add",
          "type": "address"
        },
        {
          "internalType": "uint256",
          "name": "_tax_rate",
          "type": "uint256"
        }
      ],
      "name": "pay_to_buss",
      "outputs": [],
      "stateMutability": "nonpayable",
      "type": "function"
    },
    {
      "stateMutability": "payable",
      "type": "receive"
    }
  ],
  "bytecode": "0x608060405234801561001057600080fd5b50610894806100206000396000f3fe60806040526004361061004e5760003560e01c806312d43a51146100a7578063310ff31b146100d5578063859e6ad3146101015780638d2cee581461012d5780639e8e584b14610156576100a2565b366100a25733600060010160006101000a81548173ffffffffffffffffffffffffffffffffffffffff021916908373ffffffffffffffffffffffffffffffffffffffff160217905550346000800181905550005b600080fd5b3480156100b357600080fd5b506100bc61017f565b6040516100cc94939291906104d9565b60405180910390f35b3480156100e157600080fd5b506100ea6101bd565b6040516100f892919061051e565b60405180910390f35b34801561010d57600080fd5b506101166101ef565b604051610124929190610568565b60405180910390f35b34801561013957600080fd5b50610154600480360381019061014f91906105ee565b610221565b005b34801561016257600080fd5b5061017d60048036038101906101789190610641565b610353565b005b60048060000154908060010160009054906101000a900473ffffffffffffffffffffffffffffffffffffffff16908060020154908060030154905084565b60028060000154908060010160009054906101000a900473ffffffffffffffffffffffffffffffffffffffff16905082565b60008060000154908060010160009054906101000a900473ffffffffffffffffffffffffffffffffffffffff16905082565b81600260010160006101000a81548173ffffffffffffffffffffffffffffffffffffffff021916908373ffffffffffffffffffffffffffffffffffffffff16021790555080600460030181905550606460046003015484610282919061069d565b61028c9190610726565b6004600001819055506000600460000154846102a89190610757565b9050600260010160009054906101000a900473ffffffffffffffffffffffffffffffffffffffff1673ffffffffffffffffffffffffffffffffffffffff166108fc829081150290604051600060405180830381858888f19350505050158015610315573d6000803e3d6000fd5b50806002600001600082825461032b919061078b565b92505081905550836000800160008282546103469190610757565b9250508190555050505050565b60006004600001541161039b576040517f08c379a00000000000000000000000000000000000000000000000000000000081526004016103929061083e565b60405180910390fd5b80600460010160006101000a81548173ffffffffffffffffffffffffffffffffffffffff021916908373ffffffffffffffffffffffffffffffffffffffff160217905550600460010160009054906101000a900473ffffffffffffffffffffffffffffffffffffffff1673ffffffffffffffffffffffffffffffffffffffff166108fc6004600001549081150290604051600060405180830381858888f1935050505015801561044f573d6000803e3d6000fd5b506004600001546004600201600082825461046a919061078b565b92505081905550600060046000018190555050565b6000819050919050565b6104928161047f565b82525050565b600073ffffffffffffffffffffffffffffffffffffffff82169050919050565b60006104c382610498565b9050919050565b6104d3816104b8565b82525050565b60006080820190506104ee6000830187610489565b6104fb60208301866104ca565b6105086040830185610489565b6105156060830184610489565b95945050505050565b60006040820190506105336000830185610489565b61054060208301846104ca565b9392505050565b600061055282610498565b9050919050565b61056281610547565b82525050565b600060408201905061057d6000830185610489565b61058a6020830184610559565b9392505050565b600080fd5b61059f8161047f565b81146105aa57600080fd5b50565b6000813590506105bc81610596565b92915050565b6105cb816104b8565b81146105d657600080fd5b50565b6000813590506105e8816105c2565b92915050565b60008060006060848603121561060757610606610591565b5b6000610615868287016105ad565b9350506020610626868287016105d9565b9250506040610637868287016105ad565b9150509250925092565b60006020828403121561065757610656610591565b5b6000610665848285016105d9565b91505092915050565b7f4e487b7100000000000000000000000000000000000000000000000000000000600052601160045260246000fd5b60006106a88261047f565b91506106b38361047f565b9250817fffffffffffffffffffffffffffffffffffffffffffffffffffffffffffffffff04831182151516156106ec576106eb61066e565b5b828202905092915050565b7f4e487b7100000000000000000000000000000000000000000000000000000000600052601260045260246000fd5b60006107318261047f565b915061073c8361047f565b92508261074c5761074b6106f7565b5b828204905092915050565b60006107628261047f565b915061076d8361047f565b9250828210156107805761077f61066e565b5b828203905092915050565b60006107968261047f565b91506107a18361047f565b9250827fffffffffffffffffffffffffffffffffffffffffffffffffffffffffffffffff038211156107d6576107d561066e565b5b828201905092915050565b600082825260208201905092915050565b7f6e6f742073756666696369656e74207461780000000000000000000000000000600082015250565b60006108286012836107e1565b9150610833826107f2565b602082019050919050565b600060208201905081810360008301526108578161081b565b905091905056fea26469706673582212206c48d4b0eccb1fee3793fecb4fd16fc1737803f69baccb406a02405360f4e97364736f6c63430008090033",
  "linkReferences": {},
  "deployedLinkReferences": {}
}